:1000000080750020A5540100F749020079540100D1
:100010007954010079540100795401000000000076
:10002000000000000000000000000000314C010052
:100030007954010000000000A14B01007954010037
:10004000A14D010071670200A14D0100A14D010009
:10005000A14D0100A14D0100A14D0100A14D0100E4
:1000600041670200A14D0100A14D01005B67020044
:10007000A14D0100A14D0100A14D0100A14D0100C4
:10008000A14D0100A14D0100A14D0100A14D0100B4
:10009000A14D0100A14D0100A14D0100A14D0100A4
:1000A000A14D0100A14D0100A14D0100A14D010094
:1000B000A14D0100A14D0100A14D0100A14D010084
:1000C000A14D0100A14D0100A14D0100A14D010074
:0C00D000A14D0100A14D0100A14D010057
:0400DC00FFFFFFFF24
:1000E00081F0004102E000BF83F0004330B54FEAE9
:1000F00041044FEA430594EA050F08BF90EA020F56
:100100001FBF54EA000C55EA020C7FEA645C7FEAE8
:10011000655C00F0E2804FEA5454D4EB5555B8BF0B
:100120006D420CDD2C4480EA020281EA030382EA7C
:10013000000083EA010180EA020281EA0303362D0E
:1001400088BF30BD11F0004F4FEA01314FF4801CE1
:100150004CEA113102D0404261EB410113F0004FF3
:100160004FEA03334CEA133302D0524263EB4303AA
:1001700094EA050F00F0A780A4F10104D5F1200E48
:100180000DDB02FA0EFC22FA05F2801841F10001A3
:1001900003FA0EF2801843FA05F359410EE0A5F177
:1001A00020050EF1200E012A03FA0EFC28BF4CF0A8
:1001B000020C43FA05F3C01851EBE37101F000455E
:1001C00007D54FF0000EDCF1000C7EEB00006EEB6B
:1001D0000101B1F5801F1BD3B1F5001F0CD34908F5
:1001E0005FEA30004FEA3C0C04F101044FEA44524C
:1001F00012F5800F80F09A80BCF1004F08BF5FEAD3
:10020000500C50F1000041EB045141EA050130BDB2
:100210005FEA4C0C404141EB0101013C28BFB1F5C4
:10022000801FE9D291F0000F04BF01460020B1FA0F
:1002300081F308BF2033A3F10B03B3F120020CDAE2
:100240000C3208DD02F1140CC2F10C0201FA0CF0C0
:1002500021FA02F10CE002F11402D8BFC2F1200C25
:1002600001FA02F120FA0CFCDCBF41EA0C019040DB
:10027000E41AA2BF01EB0451294330BD6FEA040424
:100280001F3C1CDA0C340EDC04F11404C4F120020F
:1002900020FA04F001FA02F340EA030021FA04F321
:1002A00045EA030130BDC4F10C04C4F1200220FA78
:1002B00002F001FA04F340EA0300294630BD21FAB6
:1002C00004F0294630BD94F0000F83F4801306BF7C
:1002D00081F480110134013D4EE77FEA645C18BF70
:1002E0007FEA655C29D094EA050F08BF90EA020F07
:1002F00005D054EA000C04BF1946104630BD91EAFF
:10030000030F1EBF0021002030BD5FEA545C05D101
:100310004000494128BF41F0004130BD14F5800440
:100320003CBF01F5801130BD01F0004545F0FE41B4
:1003300041F470014FF0000030BD7FEA645C1ABFE9
:10034000194610467FEA655C1CBF0B46024650EA20
:10035000013406BF52EA033591EA030F41F400214C
:1003600030BD00BF90F0000F04BF0021704730B5D2
:100370004FF4806404F132044FF000054FF00001A7
:1003800050E700BF90F0000F04BF0021704730B568
:100390004FF4806404F1320410F0004548BF40423D
:1003A0004FF000013EE700BF42004FEAE2014FEA92
:1003B00031014FEA02701FBF12F07F4393F07F4F6D
:1003C00081F06051704732F07F4208BF704793F070
:1003D0007F4F04BF41F40021704730B54FF4607483
:1003E00001F0004521F000411CE700BF50EA010286
:1003F00008BF704730B54FF000050AE050EA01022F
:1004000008BF704730B511F0004502D5404261EB9E
:1004100041014FF4806404F132045FEA915C3FF4DF
:10042000D8AE4FF003025FEADC0C18BF03325FEA7C
:10043000DC0C18BF033202EBDC02C2F1200300FA2D
:1004400003FC20FA02F001FA03FE40EA0E0021FA52
:1004500002F11444BDE600BF70B54FF0FF0C4CF440
:10046000E06C1CEA11541DBF1CEA135594EA0C0FF2
:1004700095EA0C0F00F0DEF82C4481EA030621EA2D
:100480004C5123EA4C5350EA013518BF52EA033568
:1004900041F4801143F4801338D0A0FB02CE4FF01A
:1004A0000005E1FB02E506F00042E0FB03E54FF04A
:1004B0000006E1FB03569CF0000F18BF4EF0010E42
:1004C000A4F1FF04B6F5007F64F5407404D25FEA3E
:1004D0004E0E6D4146EB060642EAC62141EA5551F1
:1004E0004FEAC52040EA5E504FEACE2EB4F1FD0C33
:1004F00088BFBCF5E06F1ED8BEF1004F08BF5FEAB1
:10050000500E50F1000041EB045170BD06F0004662
:1005100046EA010140EA020081EA0301B4EB5C040F
:10052000C2BFD4EB0C0541EA045170BD41F4801107
:100530004FF0000E013C00F3AB8014F1360FDEBF2C
:10054000002001F0004170BDC4F10004203C35DA08
:100550000C341BDC04F11404C4F1200500FA05F38B
:1005600020FA04F001FA05F240EA020001F000422C
:1005700021F0004110EBD37021FA04F642EB0601A2
:100580005EEA430E08BF20EAD37070BDC4F10C04CC
:10059000C4F1200500FA04F320FA05F001FA04F290
:1005A00040EA020001F0004110EBD37041F100017C
:1005B0005EEA430E08BF20EAD37070BDC4F1200587
:1005C00000FA05F24EEA020E20FA04F301FA05F2EF
:1005D00043EA020321FA04F001F0004121FA04F297
:1005E00020EA020000EBD3705EEA430E08BF20EA67
:1005F000D37070BD94F0000F0FD101F000464000A1
:1006000041EB010111F4801F08BF013CF7D041EA22
:10061000060195F0000F18BF704703F00046520026
:1006200043EB030313F4801F08BF013DF7D043EAF7
:100630000603704794EA0C0F0CEA135518BF95EAAD
:100640000C0F0CD050EA410618BF52EA4306D1D134
:1006500081EA030101F000414FF0000070BD50EA53
:10066000410606BF1046194652EA430619D094EADD
:100670000C0F02D150EA013613D195EA0C0F05D1C7
:1006800052EA03361CBF104619460AD181EA03011B
:1006900001F0004141F0FE4141F470014FF00000D3
:1006A00070BD41F0FE4141F4780170BD70B54FF06E
:1006B000FF0C4CF4E06C1CEA11541DBF1CEA1355EE
:1006C00094EA0C0F95EA0C0F00F0A7F8A4EB0504D0
:1006D00081EA030E52EA03354FEA013100F08880C7
:1006E0004FEA03334FF0805545EA131343EA126390
:1006F0004FEA022245EA111545EA10654FEA002645
:100700000EF000419D4208BF964244F1FD0404F5FD
:10071000407402D25B084FEA3202B61A65EB030559
:100720005B084FEA32024FF480104FF4002CB6EB16
:10073000020E75EB030E22BFB61A754640EA0C0096
:100740005B084FEA3202B6EB020E75EB030E22BFD6
:10075000B61A754640EA5C005B084FEA3202B6EB17
:10076000020E75EB030E22BFB61A754640EA9C00D6
:100770005B084FEA3202B6EB020E75EB030E22BFA6
:10078000B61A754640EADC0055EA060E18D04FEA64
:10079000051545EA16754FEA06164FEAC30343EA04
:1007A00052734FEAC2025FEA1C1CC0D111F4801FD1
:1007B0000BD141EA00014FF000004FF0004CB6E7CA
:1007C00011F4801F04BF01430020B4F1FD0C88BF69
:1007D000BCF5E06F3FF6AFAEB5EB030C04BFB6EB74
:1007E000020C5FEA500C50F1000041EB045170BD67
:1007F0000EF0004E4EEA113114EB5C04C2BFD4EB94
:100800000C0541EA045170BD41F480114FF0000E17
:10081000013C90E645EA060E8DE60CEA135594EA93
:100820000C0F08BF95EA0C0F3FF43BAF94EA0C0F96
:100830000AD150EA01347FF434AF95EA0C0F7FF40B
:1008400025AF104619462CE795EA0C0F06D152EA5F
:1008500003353FF4FDAE1046194622E750EA410643
:1008600018BF52EA43067FF4C5AE50EA41047FF454
:100870000DAF52EA43057FF4EBAE12E753B94AB924
:10088000002908BF00281CBF4FF0FF314FF0FF3098
:1008900000F00CB8ADF1080C6DE904CE0CF0B4F822
:1008A000DDF804E0DDE9022304B07047704700BFC3
:1008B0002DE9F00791E8F807B2E802105B1854EB55
:1008C0000C04B2E802104D4156EB0C06B2E80210DF
:1008D0004F4158EB0C08B2E8021059EB01095AEBF2
:1008E0000C0A80E8F80780410130BDE8F007704746
:1008F0002DE9F00791E8F807B2E802105B1A74EBF3
:100900000C04B2E802108D4176EB0C06B2E802103E
:100910008F4178EB0C08B2E8021079EB01097AEB11
:100920000C0A80E8F80780414042BDE8F0077047B4
:100930002DE9F007524290E87800B1E880071740AF
:10094000DB1918EA020854EB080419EA020955EB0E
:1009500009051AEA020A56EB0A0678C090E8780000
:10096000B1E8800717407B4118EA020854EB0804FD
:1009700019EA020955EB09051AEA020A56EB0A06BA
:1009800078C080410130BDE8F00770472DE9F007DD
:10099000524290E87800B1E880071740DB1B18EA64
:1009A000020874EB080419EA020975EB09051AEA52
:1009B000020A76EB0A0678C090E87800B1E8800772
:1009C0001740BB4118EA020874EB080419EA02094F
:1009D00075EB09051AEA020A76EB0A0678C080412F
:1009E0004042BDE8F00770472DE9F00152424FF058
:1009F000040890E8300091E8C000A31B1340E41AFB
:100A0000F618EB1B1340ED1AFF1830C0C0C1B8F147
:100A10000108EED1BDE8F001704700BF00B592ECCF
:100A2000080AB1E8805707EE101A53EC102A56EC6A
:100A3000114AA7FB0251A8FB020BE7FB6310E9FB7D
:100A400062B041EC145AA8FB0351EAFB6201E7FBD8
:100A500064B5E7FB6605E8FB661505EE10BAA9FB71
:100A600003B6EAFB6316ECFB6356E8FB640BE9FB99
:100A7000641BEAFB645BECFB646B05EE900AACFB69
:100A8000023012EE104AEEFB6250E9FB6460EAFBB2
:100A900064B0E7FB6431E8FB645112EE904AE8FB76
:100AA0006461E9FB64B1EAFB640106EE103AA7FB5E
:100AB000043213EE104AE7FB6462E8FB64B2E9FB20
:100AC0006402EAFB641211EE904AE9FB6453EAFB0C
:100AD000646313EE904AE7FB64B3E8FB6403E9FB4D
:100AE0006413EAFB642306EE905A17EE109A99E815
:100AF000000610EE108AA9FB0854EAFB68B412EE57
:100B0000108AECFB6804EEFB6814E9FB6824EAFB3E
:100B1000683410EE908AEEFB6865E9FB68B5EAFB85
:100B2000680512EE908AECFB6815EEFB6825E9FB80
:100B30006835EAFB684507EE106A11EE108AAEFBD5
:100B40000876E9FB6806EAFB681613EE108AECFBF0
:100B50006826EEFB6836E9FB6846EAFB685611EE4C
:100B6000908AECFB68B7EEFB6807E9FB6817EAFBC5
:100B7000682713EE908AECFB6837EEFB6847E9FBC9
:100B80006857EAFB686700BD2DE9F04F07EE900A51
:100B9000FFF744FF17EE908A07EE90BAA8EC084AD8
:100BA00088E8FF00BDE8F08F00B591E89857A3FBF7
:100BB0000352A3FB0401E3FB6420E3FB671042EC58
:100BC000145AA3FB0752E3FB6802E4FB6415E3FB42
:100BD0006805E3FB6925A4FB07B6E3FB6926E3FB95
:100BE0006A56E4FB670BE4FB682BE3FB6A5BE3FB01
:100BF0006C6B40EC151AA4FB0810E4FB6950E3FB96
:100C00006C60E3FB6EB0E7FB6721E4FB6951E4FB3A
:100C10006A61E3FB6EB1E4FB6E0106EE102AA7FBEE
:100C20000832E4FB6A62E4FB6CB2E4FB6E02E7FBB1
:100C30006E12E7FB6853E7FB6963E4FB6CB3E7FB09
:100C40006C03E7FB6E13E8FB6E2306EE905AA7FBDE
:100C50000954E7FB6AB4E7FB6C04E8FB6C14E8FB9F
:100C60006E24E9FB6E34E8FB6865E7FB6AB5E8FBD8
:100C70006A05E8FB6C15E9FB6C25E9FB6E35EAFBC0
:100C80006E4507EE106AA8FB0976E8FB6A06E9FBE9
:100C90006A16E9FB6C26EAFB6C36EAFB6E46ECFB57
:100CA0006E56E8FB69B7E9FB6907E9FB6A17EAFBDF
:100CB0006A27EAFB6C37ECFB6C47ECFB6E57EEFBEC
:100CC0006E6700BD2DE9F04F07EE900AFFF76CFF4D
:100CD00017EE908A07EE90BAA8EC084A88E8FF0061
:100CE000BDE8F08F30B44FF0000310F8014B11F85D
:100CF000015B013A84EA050443EA0403F5D1A3F158
:100D000001034FEAD37030BC704700BF4FF00003BF
:100D100010F8012B013943EA0203F9D1A3F10103D1
:100D20004FEAD370704700BF30B411F8014B12F88E
:100D3000015B6C4000F8014B013BF6D130BC7047C1
:100D40002DE9F00791E8F807B2E802105B1854EBC0
:100D50000C04B2E802104D4156EB0C06B2E802104A
:100D60004F4158EB0C08B2E8021059EB01095AEB5D
:100D70000C0A8941B3F1FF3374F1FF3475F1FF358B
:100D800076F1000677F1000778F1000879F10109A2
:100D90007AF1FF3A51F100015B184C414D4156F197
:100DA000000657F1000758F1000859EBD1795AEBCA
:100DB000010A80E8F807BDE8F00770472DE9F00761
:100DC00091E8F807B2E802105B1A74EB0C04B2E881
:100DD00002108D4176EB0C06B2E802108F4178EBE1
:100DE0000C08B2E8021079EB01097AEB0C0A894190
:100DF0005B184C414D4156F1000657F1000758F180
:100E0000000859EBD1795AEB010A80E8F807BDE8F0
:100E1000F007704718EB040859EB05095AEB060A6E
:100E20005BEB070B5FF0000C4CF1000C18EB0508B6
:100E300059EB06095AEB070A5BEB070B50EB0C006A
:100E40005FF0000C51EB0C0152EB0C0263414CF1D2
:100E5000000CB8EB070879F100097AF1000A7BEB86
:100E6000040BA841B141A241B3416CF1000CBBEBB2
:100E7000050BB041B941AA41BB416CF1000C4CF0EB
:100E800001068CF0020718EB060859EB6C095AEBC7
:100E90006C0A7BEB6C0B70EB6C0471EB6C0572EB0A
:100EA000670653EB6C076CEB6C0C18EB0C0059EB02
:100EB0000C015AEB0C025BF1000354F1000455F1F4
:100EC000000556EBDC7657EB0C0770472DE9F04F29
:100ED00007EE900AFFF7A2FD59EC168A17EE10AA4A
:100EE000FFF798FF59EC148A5BEC15AAFFF792FF05
:100EF00017EE908A88E8FF00BDE8F08F2DE9F04FEB
:100F000007EE900AFFF750FE59EC168A17EE10AA6A
:100F1000FFF780FF59EC148A5BEC15AAFFF77AFF04
:100F200017EE908A88E8FF00BDE8F08F0EB51048F4
:100F3000017A8DF80110C1798DF800108179ADF832
:100F400004104079ADF80200684606F0E9F908B1EE
:100F5000AE2108E007480068029002A80EF0C7FF23
:100F6000002803D0B221032000F0E0F80EBD0000FD
:100F7000741100203412000010B528B11422044965
:100F80000FF03AFE002010BD6FF0150010BD0000FC
:100F90005212000070B56FF02C05D0BB204C607869
:100FA00008B1A81170BD09B36FF01500002AF9D07F
:100FB0001C4B891E06292DD2DFE801F00306162CF2
:100FC000191C1078587019E091780029EAD0D1786E
:100FD0000029E7D011781B29E4D351781B29E1D3EC
:100FE0001068C3F8050009E01078987006E01088D2
:100FF000588103E01188FF29D4D8197301220949C7
:1010000000200BF051FEB0F5803F05DB6FF00B00C8
:1010100070BDFFE72846FBE70121A170F8E700005B
:10102000400000207411002010B5074C607820B1FA
:1010300006F058FC20780BF067FC00F027FE00F06B
:10104000FFFE0020607010BD4000002070B50C460F
:10105000050002D00CB1600702D06FF0150070BD22
:1010600000F00EF9A8B128460BF014FC0A4D00223E
:101070000A49287020460BF017FE0FF094FB002160
:10108000287806F019FCFFF751FF01206870002056
:1010900070BD4FF0FF3070BD400000207411002083
:1010A00030B587B004000CD00BF09CFB4FF0FF353F
:1010B00020B10AF071FDB0F5FA7F05D9284607B0D6
:1010C00030BD6FF01500FAE7134D14486C6000F066
:1010D000E1F900206870A87001461C2268460FF0F4
:1010E00005FE1C220E4968460FF086FD1C2269464B
:1010F0000C480FF081FDEFF3108472B600F0D4FDC0
:10110000094800F0A9FE18B1C821032000F00EF82C
:1011100004B962B60020D2E7400000202D0F000085
:101120003612000074110020AD1200000EB572B628
:10113000154A5568DDB1002203466E460A2403E0D5
:10114000B0FBF4F0521CD2B20028F9D1B0540AE03E
:10115000D8B2B0FBF4F7B3FBF4F304FB1700521E54
:10116000D2B23030B054002AF2D13046A847BFF393
:101170004F8F06480168064A01F4E061114301609F
:10118000BFF34F8F00BFFDE7400000200CED00E0F3
:101190000400FA05064810B581784078014302D072
:1011A0004FF0FF3010BD06F0ADFB002010BD000079
:1011B00040000020064810B581784078014302D0F5
:1011C0004FF0FF3010BD06F0E7F9002010BD000021
:1011D00040000020064810B581784078014302D0D5
:1011E0004FF0FF3010BD0FF024F8002010BD0000BC
:1011F00040000020064810B581784078014302D0B5
:101200004FF0FF3010BD06F08FFB002010BD000036
:1012100040000020064810B581784078014302D094
:101220004FF0FF3010BD0FF01AF8002010BD000085
:1012300040000020010000010100001B1B03020010
:101240001F00080000000000000000000000000077
:101250000000047B3159272B126D7B32AE8DABAD74
:1012600076B53B9502A70000014A5268104700007E
:1012700048100020014A92681047000048100020E2
:101280000548016829B1416819B1806808B1012099
:1012900070470020704700004810002002490DC828
:1012A00081E80D000020704748100020F8B5124C6E
:1012B0000026256811E00098022802D003280CD1EE
:1012C00006E0206810B10020266005E028210CE02F
:1012D000206868B101202660A847684600F082FDBA
:1012E0000028E8D0052805D035210420FFF71EFF8F
:1012F0002D21FAE7F8BD0000480000207CB5204E03
:101300000546001D30601E4801F092FE044602288A
:1013100004D0042C07D0082C2CD02FE018492846E4
:101320000BF066FD2AE03078072804D105213E2025
:101330000BF034FD50B1124928460BF0BEFDB0F55C
:10134000817F0ED372210820FFF7F0FEB088ADF840
:10135000000001A968460CF011F80028D3D05321F1
:10136000F1E70028CFD0A97828780BF017FD0028E6
:10137000C9D003E0024928460BF068FD20467CBD39
:101380005410002070B50A7882703AB3012A25D82B
:101390001323037000230AE001EB430400EB430531
:1013A000A678EE706488240A5B1C2C71DBB2934231
:1013B000F2D300230BE000BF01EB430500EB430435
:1013C0002E796671AD882D0A5B1CA571DBB2934244
:1013D000F2D3012101EB8200C0B270BD002070BDCC
:1013E000402803D2401EC1B2054805E0FF2805D0C1
:1013F0004038C1B2024808300BF059BF0120704795
:101400004C000020401EC1B201480BF050BF00004C
:101410005C000020024902680A6140684861704728
:101420004C000020054902680A60406842F48C22A2
:101430000A60034A10434860704700004C000020D7
:10144000F8074002024902688A604068C860704735
:101450004C00002007484FF0FF3100220160C90C0A
:10146000416000F108011F200A604A600831C1E9AB
:10147000000270474C00002010B5FFF7EBFF0EF0A4
:101480004EFE04460248006800B18047204610BD69
:1014900064000020014908607047000064000020DB
:1014A0002DE9F04104464FF08050D0F8A0701F4D58
:1014B0001E4E103D1022002120460FF017FC102276
:1014C000002104F110000FF011FC2868401C08D125
:1014D0006868401C05D1A868401C02D1E868401C1F
:1014E00007D028686A68A968EB6820616261A16119
:1014F000E361002000F084FD8743F80713D13068D2
:10150000401C08D17068401C05D1B068401C02D155
:10151000F068401C07D032687068B168F3682260D8
:101520006060A160E3600020BDE8F08190000010E1
:1015300038B54FF0805104462248D1F8A010214D13
:101540000268143D521C04D14268D2431204120CAA
:1015500035D0C90733D001684068ADF80000C4F841
:101560000110BDF80000A4F80500A07940F0C0000B
:10157000A0712868401C0CD06868401C09D0A8687D
:10158000401C06D0E868401C03D0002000F038FD65
:1015900040B110220021E01D0FF0A8FB01202070B7
:1015A000002038BD2A686968A868EB68C4F807207D
:1015B000C4F80B10C4F80F00C4F81330EEE7002095
:1015C000EDE70000A400001002210180418000210D
:1015D00001710421417143F27B11C1800149816095
:1015E0000020704759272B122DE9F0418C79DDF846
:1015F00018E0082C01D9DA212CE0DFF8A4C05CF84F
:1016000020500DB1DB2125E0CD79002D45D06F00B4
:101610000A371D68022C3D4401D9264601E04FF0EF
:1016200002062E44A6F1010601D9254601E04FF03D
:101630000205A5F1010526EA05068D882544A4F1D9
:101640000104A5F1010525EA04054FF6FF74A54242
:1016500003D3E6211720FFF769FDBEF1000F18D173
:10166000F41B4CF820402580C879A0700120E07060
:10167000227108684FF6F072000CE0800888208123
:10168000002003E004EB4007401C7A81CF798742B9
:10169000F8D8C87900FB05601860BDE8F08100004B
:1016A0006800002030B503464FEA020003EB400417
:1016B00064898C4209D09C78401CB0FBF4F504FB93
:1016C0001500C0B29042F1D1FF2030BD70B5054683
:1016D000194850F8214064B3B5F5706F04D34FF446
:1016E00009711720FFF722FD294620460CF0E7F884
:1016F0000146FF2804D02046BDE870400CF0F3B846
:10170000A078B5FBF0F100FB1150C6B232464FF69F
:10171000F0712046FFF7C6FF0246FF2809D0B2420B
:1017200001D00020E07029462046BDE870400CF052
:10173000C0B8002070BD000068000020084A10B545
:1017400052F82140014620460CF0B9F80146FF2826
:1017500004D02046BDE810400CF0C5B8002010BDF4
:1017600068000020F0B589B004000E46069407D04A
:101770000025600706D04FF48C711720FFF7D6FCC8
:101780000125F6E714480022144F02604260D7E9B1
:10179000001096F800C0BB686CF31F60CDE902032F
:1017A000CDE9005106AB01A91046FFF71DFFD7E9AF
:1017B000031073787A6963F31F60CDE90202CDE903
:1017C000005106AB002201A90120FFF70DFF06988A
:1017D00009B0001BF0BD000068000020CC1800001C
:1017E00010B5044680790E4951F82000A8B14FF693
:1017F000F073E179827891420FD24A1CE27100EBDA
:10180000410252899A42F4D000EB41025289A280EF
:101810000CF069F82060002010BD052010BD00000C
:10182000680000202DE9F04107464FF6FF70388030
:10183000124850F82140ECB1A5782079B0FBF5F1C1
:1018400005FB110632464FF6F0712046FFF72AFFDE
:101850000246FF280ED0A81B1044B0FBF5F105FB93
:1018600011002179084481B239802046BDE8F04159
:101870000CF01FB80020BDE8F081000068000020D7
:101880002DE9F0410646104850F8215031462846CF
:101890000CF015F80446FF2812D0D5F806002146B2
:1018A0004FEA304728460CF01EF801463046B8474C
:1018B00005EB44014FF6F07048810020BDE8F0814F
:1018C00043F20200FAE7000068000020F5F500008E
:1018D000F802080000000000A9EB00001801080051
:1018E000000000002DE9FF4F244C064681B020681F
:1018F0009A46934658B1017AB14203D9406850F8EC
:10190000260040B143F2020005B0BDE8F08FA521EA
:101910001820FFF70BFC194602980CF01FF88046C0
:1019200058460E990CF010F8054608EB0500001D0E
:1019300087B22068A146394600680BF055FF0400C5
:101940001AD0678025802946201D0E9D07465A46DD
:10195000092300950BF0C2FE2088414638440A2333
:10196000029ACDF800A00BF0B9FED9F8000040684B
:1019700040F826400020C7E70420C5E7700000209B
:1019800070B5144C23688BB1197A814212D95A6808
:1019900052F8201071B1002542F820504A8818688A
:1019A0000BF07AFF216800200A7A0CE0C62118208B
:1019B000FFF7BCFB43F2020070BD4B6853F82030C8
:1019C00033B9401CC0B28242F7D808680BF059FF07
:1019D000002070BD700000202DE9F0410D4604008C
:1019E00090464FF0000606D00027A00705D08621BC
:1019F0001820FFF79BFB0127F7E7CDB11146002028
:101A00000BF023FF0C3000EB85068FB90A4F04F171
:101A10000C00AA003C602572606000EB850020602D
:101A2000002160680FF062F9414638680BF00DFF45
:101A30003046BDE8F08100007000002070B5084D10
:101A4000286800280AD0002404E02046FFF798FF09
:101A5000641CE4B22868007AA042F6D870BD000089
:101A600070000020094910B502460968002049B1FC
:101A70000B7A934205D9496851F82210002900D009
:101A8000081D10BDEC211820FFF750FB700000204E
:101A90000A4910B502460968002059B10B7A9342F1
:101AA00007D9496851F82210002902D031F8040BF7
:101AB000084410BDFA211820FFF738FB7000002001
:101AC00070B51E4B456804460022A1B1012060702C
:101AD000588881085FF0000004EB400304EB8006A7
:101AE0001A83198400FB015373602318401C1A7574
:101AF0000428F1D370BD62705FF0000004EB400178
:101B00000A830A8404EB80014A602118401C0A758C
:101B10000428F3D35888B0F5FF7F01D2460800E0CF
:101B2000FF260BF08FFF656020842918A160668472
:101B3000E560A0842161E68470BD0000740000208F
:101B40002DE9F04158B100251144244ECCB20027B4
:101B50003470810705D04E210920FFF7E7FA0125EF
:101B6000F2E71F2B04D84FF6FF7101EA830109E069
:101B70005900FF2B0CD903F1FF02B2EB430F00D247
:101B8000114689B24FF6FC72C91C114035B107E00D
:101B90007C22B2EB430FF4D37C21F2E770607180BA
:101BA00004EB840207EBC203002276684FF0010CBD
:101BB0000DE04DB902EB820700EB030E06F837C0CB
:101BC00006EBC707C7F804E0521C0B44D2B2A2428E
:101BD000EFD3DB1D23F00700BDE8F0817400002087
:101BE00070B5104A00205168127814E000EB8003B1
:101BF00011F833306BB100EB800011EBC0040CD056
:101C00000025A57001212046FFF75AFF25702046C8
:101C100070BD401CC0B29042E8D3A9210920FFF753
:101C200085FA000074000020044810B5408884083C
:101C30000BF008FF844200D3204610BD7400002042
:101C400030B50D4901204860821EC1F808230B49B8
:101C500088600023C1F80032C1F80823084C2360D3
:101C6000251D28608860C1F8082323602860064984
:101C70000448086030BD000000E0004000F0004073
:101C800000F500400000F63F08F5014010B5FFF7F1
:101C9000D7FF0BF0AEFF03490148086010BD0000FC
:101CA0000000F63F08F5014010B5FFF7C9FF0BF043
:101CB000A0FF00F087F805490348086000F0B8F875
:101CC000BDE8104000F0DCB80000F63F08F5014028
:101CD0002DE9F84F824638480EF0F3FEDFF8D8B011
:101CE00028B101260BF10100FF21017000E0002660
:101CF0004FF48075314C4FF000082F1D01216160B9
:101D0000C4F80081C4F80481C4F804A52160DFF898
:101D1000B0901CE0D9F80000C00618D50E200BF0DA
:101D200077FFEFF31080009072B603212046C4F8CD
:101D3000041329460BF079FF30B9394620460BF0E1
:101D400074FF08B90EF054FF009800B962B6294636
:101D500020460BF06AFF28B9394620460BF065FF94
:101D60000028D7D0394620460BF05FFF0028C5D1A8
:101D700006BB9BF801108DF80010009900919DF8AA
:101D8000001009B1012500E000250BF1010080F8E9
:101D900000800320C4F80803C4F80481C4F800815B
:101DA0000E200BF035FF04480EF0A2FE15B11120F5
:101DB000BDE8F88F0020FBE77403002000E000403E
:101DC00010ED00E010B506480EF08EFE18B130217F
:101DD0001D20FFF7ABF902480021417010BD000043
:101DE0007403002070B511490A68EAB100231D464A
:101DF00001244A68521C4A60092A00D34D600E79BA
:101E000004FA06F20E6816420BD0EFF3108372B696
:101E10000C6894430C6003B962B649680160002005
:101E200070BD5B1C092BE4D3052070BD7C00002035
:101E30000248002101604160704700007C000020E2
:101E400010B5044C2078FF2803D00AF05DFDFF2078
:101E5000207010BD0000002010B5084C617809B159
:101E60000F2010BD0AF016FD2070FF2801D00020C1
:101E700010BD73211F20FFF759F90000000000205A
:101E80000149002048707047000000200648074ABA
:101E9000818C5288914204D190F8220008B1002030
:101EA0007047012070470000901100206803002057
:101EB0000149488070470000680300200848094A2B
:101EC000818C5288914209D14FF6FF71818410F8BC
:101ED000221F19B1002101700120704700207047B6
:101EE0009011002068030020074810F8221F0129E4
:101EF00007D001210170054803490088888401202A
:101F000070470020704700009011002068030020F7
:101F10000649074B8A8C5B889A4205D191F82220AA
:101F200012B101600120704700207047901100201D
:101F30006803002009498A8CA2F57F43FF3B02D049
:101F40000021016007E091F822200449012A02D013
:101F500001600120704700207047000090110020B0
:101F600001490880704700006803002005490020EF
:101F700081F822004FF6FF7088840349088048806A
:101F800070470000901100206803002005498A8CEA
:101F9000824205D1002081F822004FF6FF7088842C
:101FA00070470000901100200A4A10B1012807D0A4
:101FB0000EE0507860B1D2F802000860D08804E0EA
:101FC000107828B190680860908988800120704757
:101FD0000020704776030020084A012338B1012809
:101FE00004D113700868906088889081704753709E
:101FF0000868C2F802008888D08070477603002005
:10200000064910B1012802D005E0487800E00878C0
:1020100008B10120704700207047000076030020BF
:102020000149087770470000520B00200148807872
:1020300070470000840000200148C078704700000D
:102040008400002070B50C460A490546084808601F
:1020500000F02CF918B1DE212720FFF767F80648B9
:1020600001210CF046F90548C0E90B5470BD000091
:10207000682A0000C8000020300B002084000020E7
:102080000149012048717047840000202DE9F84F74
:102090005F4D0A9C2E78002E72D1002A70D0002B42
:1020A0006ED0002C6CD005F11406C5E90F0186E84E
:1020B0001C0000276F712F71AF706F70EF70AF81D0
:1020C000EF8100F069F9064600F02EF9044606F0AB
:1020D000E7F805F03FFE94F96E0006F065F9E06957
:1020E00006F04AFA606906F03DFA96F8330006F009
:1020F00079FA05F13C00406890F81A0208B106F040
:1021000049F894F86B10012005F088FF002877D07B
:102110004048006805F0EEFF2088FFF7B9FC6863CF
:102120002088FFF79FFC06F18802A86392E80C1153
:10213000DFF8E49089E80C11D6F89820C9F8192046
:10214000D6F89C10C9F81D1000F02CF90146208F1C
:10215000BA460BF086FEA18E814200D20846A871D5
:10216000A84694F86B1004F12C000CF0BCF994F81C
:102170006B1096F82370A58F082905D103E0FFE7BF
:1021800040F2531140E004210BF06BFE0FB9001D2B
:1021900080B2854200D22846C5B288F8075088F838
:1021A000085096F82300D04690B1012789F818709E
:1021B000D6E92012C9E9041294F86B000BF0B1FDC6
:1021C00003462A4614493846CDF8008005F02EFD16
:1021D000012000F047FB11480068032812D00B28AB
:1021E00010D00D480E2200214A300EF07FFD0A4823
:1021F000B18A4A3041802188018096F833100171FC
:10220000BDE8F88F4FF402712720FEF78FFF000022
:1022100084000020C8000020080B0020501500405A
:102220002DE9FC418846074600F0B6F81A4C0546F1
:10223000B807616A4E7816D5A06A30B36289D21C9D
:102240000EF0DAFCA06A6062694601AAA06B0BF08E
:10225000C2F900980BF075F9C8F800003146012268
:10226000A06B0BF025F9F8070DD0D5E92001183542
:10227000401C41F10001C5E91A0115F818090128AF
:1022800008D001202876BDE8FC814FF48C6127201E
:10229000FEF74CFF0020F5E7840000200248C089CB
:1022A000C0F38020704700008400002004480078BC
:1022B00008B10C20704703490020087770470000E0
:1022C00084000020520B00200C4810B5017849B161
:1022D00000F13C010078022808D04FF40971272052
:1022E000FEF724FFBDE8104000F0CAB94868D0F8F6
:1022F0003002BDE8104005F005BF0000840000205A
:102300000846002141701B2100F8041B0E220149E0
:102310000EF072BC600B0020024A93890343938144
:10232000526910478400002001484068704700004F
:10233000C0000020014A002152691047840000209B
:1023400070B50546012918D8124CA1698847A0B17B
:10235000207990B9E5B904F110000178C80605D4D8
:10236000E06A0078C00601D4012000E00020A26AE3
:102370002AB962891AB1C90601D4012070BDA189A8
:102380008A0703D5226AD278022A01D00843F4D101
:10239000002070BD840000200148406880307047F4
:1023A000C000002010B5FFF7BFFF0446FFF7F4FFA1
:1023B0000246417F1648252910D026290ED0927F4B
:1023C000252A0BD020290DD021290BD0232A0FD06C
:1023D00094F86A00042800D1082010BD406890F8E5
:1023E000CE120EE0232A03D0406890F83E0105E0AB
:1023F000416891F83E0191F8631008400BF087FCAA
:10240000014694F86A00BDE810400BF098BC00004B
:10241000C00000202DE9FF5F8B468146FFF7BCFF1F
:102420000026664C07468DF80860039601962078D2
:102430003546022804D040F2E3412720FEF776FE1D
:10244000A07B400606D44020FFF774FFE08940F0EF
:102450004000E08197F82300B9F1000F3AD080B135
:1024600005F0B2FC05F08CFC58B9606A417841B1C6
:102470000078397EC0F3C000884202D1012060702C
:1024800097E0606A4178618121B1A06B0BF079F926
:10249000A06200E0A562E08940F48070E081606A9B
:1024A000F97D0078C0F38000884207D003A800F0CF
:1024B0008BF9E08940F48060E08100E00126606AE9
:1024C000397E0078C0F3C00088420DD102A800F028
:1024D00031F909E008B105F071FCA078401CA0704A
:1024E000E08940F40070E081DFF8D0A097F8220086
:1024F0000AF13C0A90B1FFF717FF31490D76D7E991
:102500001E23C1E9042390F86A000BF00AFC03467D
:10251000FB222B492846009505F088FB4FF0000868
:10252000BBF1000F04D1A1780120FFF709FF20B112
:1025300006F004F84FF0010802E0002000F0D0F9A6
:102540009DF8080018B101A90220FFF769FE1C4898
:10255000BA8A4A303EB11AB9C2880AB9028912B1A0
:102560004289521C4281B9F1000F04D0C188491C34
:10257000C180A57002E00189491C01810F483C30EF
:1025800001F018F9039840B10AF0DBFFDAF8041003
:10259000401C057208220BF033FF019830B1DAF8C5
:1025A00004100572102201980BF02AFFB8F1000FF9
:1025B00001D000F065F8BDE8FF9F00008400002016
:1025C000080B00202DE9F84388468146FFF7E4FE1A
:1025D000294D04462878012804D040F26F41272075
:1025E000FEF7A4FD207C0027012628B127740021D6
:1025F0000420FFF791FEA674296A0878C04380077B
:1026000009D1A07D88BB0220FFF786FE286A0078EA
:10261000C043800729D0286A407810B10220A075F5
:1026200000E0A67594F8230098B1FFF77DFE1349EA
:102630002D7A0E76D4E92023C1E9042390F86B00AB
:102640000BF06FFB03462A460C493046009705F015
:10265000EDFA38EA090004D000210846FFF770FEC1
:1026600028B1BDE8F84300F00BB80320D7E7BDE878
:10267000F843002000F0F6B884000020080B00208A
:1026800010B505F041FC05F065FB0D4CE089FFF746
:1026900051FE0C48007F58B10A490E2201F10E008C
:1026A0000EF0AAFA0748022207491D300BF0BCFEC3
:1026B000E2692179607890470020207010BD000009
:1026C00084000020520B002001230000084810B5B0
:1026D0000078022804D040F24F212720FEF726FD83
:1026E000044901200873BDE81040FFF7C9BF00008E
:1026F00084000020520B002030B404460C48007ABD
:102700000BB1001DC0B23AB9FF2805D194F86B2077
:1027100094F86A309A4209D021B194F86B1030BC19
:1027200005F030BFFF2094F86A10F8E730BC70471E
:10273000840000202DE9F0410746FFF72DFE214CD3
:1027400005460126616A087800F0030001280CD0D4
:1027500002280AD003281BD12E74E08940F40060BF
:10276000E0810120FFF7D8FD12E0487880B1E189CF
:1027700041F40061E181A16A002918D0FB2818D832
:10278000607920B1BDE8F0412020FFF7D3BD3E7055
:10279000287E012812D02E76606A4078002806D064
:1027A000F5E92001401C41F10001C5E90001BDE847
:1027B000F081207940F010002071F8E700202876A1
:1027C000EAE700008400002070B50546FFF7E4FD4D
:1027D0000446807D00282DD002280CD11B482946B4
:1027E000406B0AF03DFE30B3D4E91E01401C41F1BC
:1027F0000001C4E91E010025A575A07C20B1A574C7
:1028000000211020FFF788FD607C70B16574FFF730
:1028100055FB98B100210820FFF77EFDD4E91E0189
:10282000401C41F10001C4E91E01E07D01280AD0ED
:102830000120E07570BD40F2DE3101E040F2F5317B
:102840002720FEF773FCE57570BD000084000020B2
:1028500003480078002801D0FFF712BF704700003E
:10286000840000202DE9F0410646FFF75DFD80461B
:10287000FFF792FD184C05463246E06A606295F813
:10288000233001214046FFF737FF95F8230000274A
:1028900070B1206B05F0AAFD104801210176D5E941
:1028A0002012C0E90412216B606A05F011FA04E0FD
:1028B000606A05F09BFD05F04DFA16B9384605F043
:1028C00045FC002198F86A20084605F019FE022010
:1028D0002070BDE8F081000084000020080B00207B
:1028E0002DE9FC470446FFF757FD0546FFF71CFDA1
:1028F00000278DF800700646DFF8649195F82330C4
:1029000022463946FFF7F8FEA87D4FF00108A9F1ED
:10291000200440B1012820D002282FD003283BD02A
:102920004FF4407157E0A0795021ADF8040088536E
:102930004846FFF7EDFA30B18020216AFFF7ECFC42
:1029400085F811802CE06A4601A9606B0BF001FA52
:10295000206210B195F85B1011B1424820621FE06F
:102960009DF8001021B90780877001210BF0C1FC90
:10297000BDF80410206A0BF044FC11E0B6F85000DA
:10298000ADF804006A4601A9606B0BF0E2F9206221
:1029900030B940F2EA211EE04846FFF7B9FAC0B16B
:1029A000206A0823017801F0F7010170EA7D03EA4B
:1029B000C202114301F0FB0101702A7E042303EAE5
:1029C0008202114301F0EF010170C943890705D06C
:1029D00007E040F2F3212720FEF7A8FBC078022889
:1029E0000FD0606B0AF03AFE08B101210AE0206ABC
:1029F0000078C043800704D0FFF748FA80F0010157
:102A000000E00021206A027842EA0111017095F885
:102A1000221081B1417871B1206B05F0E7FC1148BB
:102A200028380776D5E91E12C0E90412216A206B06
:102A300005F04EF903E005F0D9FC05F08BF996F8A6
:102A40006B200121002005F05BFD84F80380216AE2
:102A50000A8822828978A17484F80080BDE8FC8706
:102A6000A4000020300B0020CD260000152400001B
:102A7000C52500005128000004494A78824203D944
:102A8000084490F84201704700207047B6110020BA
:102A900004494A78824203D9084490F84A017047B1
:102AA00000207047B611002004494A78824203D9B9
:102AB00001EB00108230704700207047B6110020F3
:102AC000054A01EB410102EB41010268C1F80A210C
:102AD0008088A1F80E017047B611002004494A7899
:102AE000824203D901EB0010801C70470020704720
:102AF000B611002010B54FF4C572002105480EF044
:102B0000F5F805480021017041704FF46171418072
:102B100010BD0000B61100206C0300200B4B10B557
:102B20005C78844210D9184490F80201C0EBC000D0
:102B3000184490F852310B70D0F853111160B0F86E
:102B400057019080012010BD002010BDB61100205B
:102B500001484088704700006C03002005494A780E
:102B6000824203D9084490F83A0108B10020704726
:102B700001207047B61100200149487070470000DD
:102B80006C0300200246094810B500780B4658B186
:102B90000748417841B10BB1801C01E00448823004
:102BA00004F09EFF012010BD002010BD6C0300202A
:102BB000B6110020084910B5034600204A7806E007
:102BC0000C1894F802419C4204D0401CC0B28242CE
:102BD000F6D8082010BD0000B6110020F0B51A4C40
:102BE0000346002025782BE0C0EBC00222440F787A
:102BF00092F853C192F8526187EA0C075E403E4456
:102C00004F7892F854C187EA0C073E448F7892F8C7
:102C100055C187EA0C073E44CF7892F856C187EA3F
:102C20000C073E440F7992F857C192F8582187EA71
:102C30000C073E444F795740F74204D0401CC0B2C5
:102C40008542D1D80820F0BDB61100202DE9F0470B
:102C5000044600F180054FF0010971B104F1A607A7
:102C60007E1E012929D002294ED0032923D13946BD
:102C70003046BDE8F0470BF0E9B94FF43E72002151
:102C80000EF034F885F825902449E966204607219E
:102C9000296710F8EC1F21F004010170FE2085F86F
:102CA000A6007F2068761E48A8600020C5E90000C5
:102CB000202084F8A402BDE8F0874FF00008A4F8B3
:102CC000368284F82B82216916480A460844B0FBF4
:102CD000F1F0C4F8C40040F6B830A4F8C800638B23
:102CE000284600F021F8394630460BF0AFF90DF0D8
:102CF0005BFF18B1606900F0D9FB10B184F81A824B
:102D0000D9E784F81A92D6E70169B4F8DA32D4F830
:102D1000D4222846BDE8F04700F006B82F4904C485
:102D200000E0FCFF7FC3C90110B50024A0F84C40AF
:102D300030F8504F4C43B4FBF2F420F8104940F205
:102D40007124634302EB03135B1EB3FBF2F3C381F5
:102D5000094BB3FBF2F35B1C83820389634302EBF1
:102D600003135B1EB3FBF2F3436003684B43B3FBF7
:102D7000F2F1016010BD0000005A6202024991F9AF
:102D800000100BF014B900008403002008B57F2068
:102D90008DF80000684605F0D9FB40B10548407841
:102DA000404241B29DF900000BF001F908BD9DF9C8
:102DB000000008BD84030020014A10705170704764
:102DC000840300200CB504A1D1E90001CDE9000184
:102DD000684600F005F80CBDFFFFFFFF1F00000074
:102DE0000549FF220A700A460368C2F801300079DB
:102DF00050710020087070478603002070B590F86D
:102E0000322090F83130012403FB01212522B1FB4F
:102E1000F2F302FB131100EBD10280F8321001F043
:102E2000070392F8262004FA03F31A4204D000BFE5
:102E300080F83310002070BD90F83020B1FBF2F321
:102E400002FB1311491CC9B20023C51895F82B20A9
:102E50008A4212D395F82650002200BF04FA02F6E7
:102E6000354201D0491EC9B221B1521CD2B2082A42
:102E7000F4D304E002EBC301DAE7891AC9B25B1CA0
:102E8000DBB2052BE1D31F2070BD000070B5491CDB
:102E90000023C9B20124C518AA798A4212D395F831
:102EA0000150002204FA02F6354201D0491EC9B28F
:102EB00021B1521CD2B2082AF4D305E002EBC300C0
:102EC000C0B270BD891AC9B25B1CDBB2052BE2D35C
:102ED0009D214620FEF72AF9417841B1C0782B2880
:102EE00003D2044A105C884201D1012070470020BF
:102EF00070470000AC0D010010B50122C1702B29F4
:102F000002D2064A525C06E0FF2904D040F2744126
:102F10002A20FEF70BF9427010BD0000AC0D010035
:102F20000449897C490700D408B10020704701207A
:102F300070470000981000200348807C800701D46F
:102F40000120704700207047981000200348807CC3
:102F5000C00701D000207047012070479810002062
:102F60002DE9FE43884699461546044669460AF00F
:102F700009FFE0BB019E002780367DB12046FEF7A9
:102F800087FD04000ED029460AF03AFB18B11B4910
:102F90004988A94208D20020BDE8FE83012086F8B6
:102FA000240024E0672125E0014602AA20460AF019
:102FB00020FB02980780877096F8241009B14FF023
:102FC000020841460BF095F902982A464946C01C72
:102FD0000DF012FE204629460AF0C9FA48B16846AB
:102FE0000BF0E2F90198A0F8227286F82470012013
:102FF000D2E77C212B20FEF799F8000098100020E2
:10300000094882B0007A8DF80000009800909DF881
:103010000000002805D102220449034802B00BF049
:10302000EFB902B070470000B010002047E4000084
:103030002DE9F84FDFF878915E4F83464FF0010A93
:10304000002678683546007A8DF8000000980090D8
:103050009DF80010102906D199F8131019B1B9F88C
:103060001400002873D08DF80060684600F006F95F
:103070009DF800100029F8D1002868D00446007A95
:103080008DF80000009800909DF8008004F1080081
:103090000521009001704046B8F1080F42D007DCCE
:1030A00002280DD0032817D0B8F1040F05D11DE078
:1030B0000F2852D0B8F1100F59D040F24A2165E0E4
:1030C000626832B1594620469047042060F30705F4
:1030D00010E040F2C31159E0626822B1594620461F
:1030E0009047054606E04FF4E6714FE06168B1B1E4
:1030F00020468847C5F3072001284AD0EFF3108106
:1031000072B6207A8DF80000009800909DF80000BB
:10311000052842D0B0B366F30705A1B341E04FF4F0
:10312000EB7133E060685D4698B104882046FEF795
:10313000AFFC80B16E700B212970EC80A5F808A05F
:1031400085F804A031460AF0F2FA04203E61BDE899
:10315000F88FE5211AE0C52118E08BF801601421F1
:103160008BF80010D4F80910CBF80410ADE7124822
:10317000026822B1606838B1008859469047022041
:103180003E61E4E709E00BE04FF410711020FDF719
:10319000CDFF00984146017003E026723E61BCE716
:1031A00062B615F0FF0F3FF44CAFE8B2CFE7000076
:1031B00098100020C4100020CC00002001490870A5
:1031C00000F0BEB88C030020024901480860704737
:1031D000D9310000CC00002038B50D0014D0A880F3
:1031E00000216972FEF73EFC04460AF0E4F970B172
:1031F00001466A4620460AF0FCF9E88050B1FB28F7
:103200000BD940F2231133E040F2131130E04FF4B8
:103210008E712DE040F221112AE000980BF015F894
:10322000012804D0022802D040F2331120E0287295
:103230002868A8B10099EA88C91C0DF0DDFC204679
:103240000AF081F978B1204600210AF070FA68B1DD
:103250000948C17C002902D0818A491E818238BD7B
:103260004FF49D7104E040F23F1101E04FF4A27170
:103270001020FDF75BFF00009810002038B50346D2
:103280001749002018700869012440B1027A8DF8AE
:103290000020009A00929DF80050002D11D148683E
:1032A000027A8DF80020009A00929DF80050012DBE
:1032B00006D0EFF3108272B605684D6012B102E0DD
:1032C000002038BD62B6027A8DF80020009A009284
:1032D0009DF800500DB1086138BD1C7038BD00006C
:1032E000C410002038B5D0B1416000F108010A7067
:1032F000EFF3108372B6104C0460211F4A684AB184
:10330000127A8DF80020009A00929DF80050012D4D
:1033100000D10C600A68106008602BB105E040F233
:1033200075211020FDF702FF62B604480078BDE861
:10333000384009F0CDBA0000C81000208C030020EE
:1033400010B51422002108480DF0D0FC06481222C6
:10335000002114380DF0CAFC034801210173011D3E
:103360004160016010BD0000C4100020F0B4508125
:103370000C8994818B89D38148891082CD895582AB
:10338000CE8DAE4208D14D8D854205D10D8E9D4228
:1033900002D18B8DA34201D0012300E000231375DD
:1033A0004885508AC88590898885D0890886F0BC70
:1033B000014910460BF01EB8DD3300005081888AA9
:1033C0009081C88AD081088B1082488B5082024934
:1033D00010460BF00CB800001D34000038B5A0F109
:1033E0001804007D0D4600F00100FFF799FD002153
:1033F00008B100910CE069701120287054F8220F78
:1034000068606068A860A068E86003484068009051
:10341000BDF8000038BD0000A434000070B586B0CF
:103420000E460446FFF788FD002558B3A4F5BC708E
:103430002572048803A920460CF025FD08B1FE2161
:1034400017E0ADF80040BDF81200ADF80200BDF87D
:103450001400ADF80400BDF80E00ADF80600BDF88C
:103460001000ADF8080068460CF049FD20B140F2AC
:1034700007112C20FDF75AFECDF80050BDF80000D2
:1034800006B070BD19203070757054F80A0F706066
:103490006068B0602089B081014800680090EDE765
:1034A000A43400000400000004000000F0B56FF038
:1034B0001F02010C02EA90261F25A1F5AA405438EC
:1034C0000DD0A1F5AA40553809D0A1F52850AA3849
:1034D00005D0A1F52A40AA3801D0012000E0002043
:1034E000002213464FEA020482EA0107FF431F430A
:1034F0007F1C0FD006F00107520842EAC73205F0E0
:1035000001075B0876086D08641C43EAC733162C74
:10351000EAD3F0BD0020F0BD70B50C4DA5F1080454
:1035200008210A48FDF7A6FE286810B96868002837
:10353000F6D000F013F8206000F010F86060216809
:10354000002901D10028F4D070BD0000D80000206F
:10355000014800F009B80000D0000020014800F048
:1035600003B80000D800002010B5D0E90021094BB5
:10357000094C53435443514081EAB21282EA41223A
:103580004FEAF141C0E9002143EAD46303EB83032E
:10359000184610BD6037EFC6BB79379E70B54468DA
:1035A000091D002594F88C008034C00701D001204B
:1035B00070BD486809680C4B41F607021940E16686
:1035C000104020671B2104F16C000BF077F9A4F880
:1035D000585094F85A00401C84F85A00E06840F0B3
:1035E0000100E060002070BD2F4904F710B5041DF4
:1035F00004F0ECF9034B41F607021840114020603B
:10360000616010BD2F4904F72DE9F8430378406845
:103610000F1D00F1800500F5A57406464FF0000867
:103620006A7F072128460AF0C4FBE0B13968184BCD
:103630007868194041F60702E966104028671B21A7
:1036400005F16C000BF03AF985F8568085F81D807D
:1036500094F8681040468DF80010009900919DF88C
:10366000001091B902E00120BDE8F8833188A4F888
:103670006A1084F869003968E16679682167022276
:10368000044904F160000AF0BBFE0020ECE70000F2
:103690002F4904F729E9000070B50D1D446804F0B6
:1036A00095F941F60702054B114094F8EC201840BB
:1036B000024062F307002860696070BD2F4904F77B
:1036C000416882B001F5A57091F8B2218DF8002013
:1036D000009A00929DF80020002A0BD10988A0F8DA
:1036E0006A101A2180F8691002220349603002B082
:1036F0000AF086BE02B0704729E9000070B5446840
:103700000D46037894F89D20803400260821204639
:103710000AF04FFB20B9207B800701D5012070BD46
:1037200094F85D00800719D428460AF0FCFD84F85F
:10373000670035F8050FA4F868006888A4F86A00E7
:1037400094F85D0040F0020084F85D00C00709D0E5
:103750000222114904F15E000AF066FE94F85D0051
:10376000C00710D1E068810703D54F214020FDF745
:10377000DDFC40F00200E06094F85A00401C84F840
:103780005A00A4F85860607F012802D1667784F857
:103790005660002070BD0000D7E90000044A92681E
:1037A000C2F580534B43424303EB22307047000085
:1037B000E0000020F8B54468064604F1800500F0FA
:1037C0007BF894F8281001291AD1002818D07068C5
:1037D00090F852118DF80010009900919DF800109A
:1037E00000F5A57000290BD121884181697E017304
:1037F000A97E4173BDE8F840022202490AF000BEEA
:10380000F8BD00005FEA000000F500610D4A10B548
:1038100000F50060091300134BB292F900404042DA
:10382000002140B2A34202DA92F9021005E092F9B7
:103830000140A34204DD92F90310084400F307019C
:10384000084610BDE00000202DE9FC41A0F5FA7506
:10385000A0F5BA7495F86B000BF0D9FF0646A06886
:10386000FFF7D2FF070021D020460BF000F9002817
:103870001CD0288869460AF085FA18B185217A207B
:10388000FDF754FC761CF1B202233A4668460BF071
:10389000DDFF00280AD1064806490079A0FB016532
:1038A0000DF06CF880196941C4E90001BDE8FC81A4
:1038B000E000002040420F002DE9F0410746FFF7ED
:1038C00065FA7C68054684F8990080347F2842D0E8
:1038D00094F833007E68A0762946A068FFF75EFF63
:1038E000A0601E484079C0B1786800F18008D0F827
:1038F0008800FFF789FF80B140460BF0B8F860B14F
:10390000786800F5A578074604F08AFC87F86B0014
:10391000134908F1AA000AF070FD94F91B00002178
:10392000281A00D5404296F82920824210DCFF2A4E
:103930000ED0207F401CC0B2207796F82A209042FB
:1039400002D8E07E7F2803D10020E5762077012190
:103950000846BDE8F0810020FBE70000E000002001
:1039600049380000F8B50BF09EF804460D466A464B
:1039700000F062F808B10120F8BD0F4803784178E3
:103980008B4201D10020F8BD1A46416808E000BF13
:1039900001EBC206521E56E9027CC6E9007CD2B297
:1039A0009DF80060B242F3D8F2B201EBC2015B1C99
:1039B000C1E900450370DEE7EC00002010B54207C6
:1039C00003D063214820FDF7B1FB20B1034A5170B9
:1039D000506000201070C80010BD0000EC000020F6
:1039E00038B50BF060F86A4600F026F8002814D0CD
:1039F0000A4A1078401EC1B211709DF8000052684A
:103A000008E000BF02EBC003401CD3E90245C3E954
:103A10000045C0B28842F5D3012038BDEC0000203B
:103A20000149002008707047EC00002001484078F0
:103A300070470000EC000020F0B5204D002313700B
:103A40002B7823B300245B1EDBB2D5F804C00BE057
:103A5000E5186D080CEBC506D6E900763F1A8E41D5
:103A600001D22C4600E02B461D1B012DF0DC0CEB97
:103A7000C406D6E9005680EA050781EA060E57EA31
:103A80000E0705D0451B71EB060503D2147010E03C
:103A9000147011E00CEBC305D5E9004580EA04067B
:103AA00081EA05073E4306D0001BA94100D35B1CF9
:103AB00013700020F0BD13700120F0BDEC00002059
:103AC00010B50446007CB8B3022835D05FF0010081
:103AD00084F8500090B3E07D88B3D4F81100C4F8A6
:103AE0005100B4F81500A4F85500207C0BF01AF82A
:103AF00020760821617630B194F8570004F158011E
:103B00000AF036F96076FFF723F81549A0FB012388
:103B100004F148000BF05EF9002120460BF0F1F8AB
:103B2000002084F85E00A078400718D52046BDE844
:103B30001040002100F004BE0020C9E700E009E0C9
:103B400004F151010020FEF72FFA0028CDD140F2F8
:103B5000BA4101E040F2BE412D20FDF7E7FA10BD69
:103B600040420F0030B50C468DB005460146242278
:103B700002A80DF041F80BA80BF089F9A07A8DF896
:103B8000180020788DF80800B4F80100ADF80000A6
:103B90009DF8000000F00101C0F3400241EA42013B
:103BA000C0F3800241EA8201C0F3C00241EAC201CF
:103BB000C0F3001241EA0211C0F3401241EA42117F
:103BC000C0F3801041EA8010ADF80A00207D012882
:103BD00006D0022804D040F2A6210620FDF7A6FA5E
:103BE0008DF80C00617A0BA80BF038F9207D0121CB
:103BF000022802D1607D401CC1B2A07E401CC2B22E
:103C00000BA80BF0F2F8BDF80A00000701D5002060
:103C100020E00BA80BF0FBF8BDF80A10282200F0FA
:103C200033FE40F2712100F2DD20B0FBF1F0484399
:103C3000D4F8021040F271230A0A40F271214A437B
:103C4000D4F80510090A5943904201D8049204E0BF
:103C5000884201D8049000E00491A07C8DF8170000
:103C6000207E012800D000208DF81400686B09F038
:103C7000F7FE686B09F09CFF242202A928460CF08D
:103C8000BBFF0B98A862BDF83000A885E07A68B148
:103C900002280BD05FF0010085F85700E068A865A6
:103CA000208AA5F85C000DB0002030BD0020F3E7AD
:103CB0000A4A10B500211170094C606000F022F82A
:103CC00010B140F2323104E0A068002804D140F283
:103CD00035312D20FDF72AFA10BD0000D810002044
:103CE000F4000020024901488860704770480000D5
:103CF000F40000200249086089680968084700004C
:103D0000F4000020084810B5007810B10C242046BB
:103D100010BD00241822214603480CF0E7FF04F0F0
:103D2000D1F803F0F5FEF2E7D8100020044910B5F1
:103D30000978012901D100F043FC002010BD0000EA
:103D4000D81000200449034808600549034808606A
:103D5000704700000D46000000010020A94B000044
:103D60000401002010B504468078C0F3C00058B1AB
:103D70003C23FF222046E16900F058FA0222044960
:103D800004F16A000AF03CFB012084F8690010BDD0
:103D900057ED00002DE9F0410F00044623D004F157
:103DA000280005460BF05CF8B0B9A078C0F3C0005D
:103DB00050B328460BF02BF8064628460BF050F877
:103DC000301AC0B20BF0A1F80146354842681144E0
:103DD000416028460BF062F828460BF024F80146B3
:103DE00020460AF0ECFF2F4D94F85E6000216868D1
:103DF00001800AF077FF6088132813D009DC1028AF
:103E000036D0122809D131E02046BDE8F04100F05B
:103E1000D7BB15280FD01D280DD04FF4CE612D2013
:103E2000FDF784F9002168680AF068F901216868E3
:103E30000AF058FF20E0012168680AF05FF90121CB
:103E400068680AF04FFF36B104F15F0168680AF054
:103E500070F9012106E004F1580168680AF069F977
:103E600094F8571068680AF06AF905E0062100E046
:103E7000022168680AF042F9204600F0D7FC608809
:103E80001D2807D0152805D094F83C20A16B686840
:103E90000AF024F939462046BDE8F04100F05ABA4C
:103EA000D8100020F40000202DE9F0412F4D80466D
:103EB0002878022805D02878032802D040F61A5125
:103EC0002BE02B4C2668307B18B1FEF75FFF86F89D
:103ED0002E00D4F804C00027B8F1000F9CF80000B1
:103EE00000F00F0627D02168C00901F1510391F8B5
:103EF00050200CF1090109F0B3FEE0B139466068C9
:103F00000AF0DCF8B8B12A7820683146022A07D0D6
:103F10002A78032A04D040F6F3412D20FDF706F954
:103F2000A2682B7852696FF0070606EB8303D2581C
:103F30009047064600E00126A87B18B103F0C2FFB7
:103F400003F0E6FD002E0FD020680AF0F4FF30B138
:103F500003F0DAFFA0688068BDE8F0410047206800
:103F6000BDE8F04100F02CBBBDE8F081D810002086
:103F7000F400002010B5032902D005290AD102E07F
:103F800000F0ACFB03E00449096809B1884708B1B7
:103F9000002010BD012010BD00010020094A0300CF
:103FA000106801D000F00CBB002909D09168064AC6
:103FB000096912786FF00F0303EB820289580847F2
:103FC00070470000F4000020D810002070B50446AF
:103FD0004088102819D0104DA87B20B103F0B8FDFF
:103FE000402003F07DFF0D48406804F0FFF9A07801
:103FF000400704D400212279084604F081FA002009
:1040000004F0A4F80220287070BD2046BDE870407E
:104010000121FFF7BFBE0000D8100020F4000020EF
:1040200010B5124C206800F025F820680AF083FFD4
:10403000002820680BD00E490A78022A0BD00A7893
:10404000032A08D040F625412D20FDF76FF8BDE882
:10405000104000F0B5BAA2680978D2686FF0070383
:1040600003EB81015158BDE810400847F4000020DF
:10407000D810002010B5017B21B10446FEF786FE62
:1040800084F82E000548807B002805D003F01AFF35
:10409000BDE8104003F03CBD10BD0000D81000206A
:1040A0002DE9F0415B4D044686B02878E8BB2078C6
:1040B000FF284BD04FF00008A5F80C80C5F804800D
:1040C00085F8018085F8028084F86980524B534E50
:1040D0000FCB8DE80F00B06840680390684604F08D
:1040E00009F804F0DDF803F0EDFE03F011FD4C4893
:1040F00004F038FA4B4804F03FFA04F12800074670
:104100000AF0CCFE38460AF08EFE014620460AF040
:1041100056FE94F90E0004F047F92179002003F0CF
:104120007DFF0121A860A8B100E00FE004F1380193
:10413000606B09F004FD074604F14001606B09F073
:1041400001FD4FB194F8201051B905E00C2006B0E4
:10415000BDE8F08129705AE020B194F8210008B13F
:10416000012700E00027207E10B9A078400723D562
:10417000D4E912106FF00042504070EA010106D0FD
:104180000CF0FCFBD4E91223801A994100D29FB1B4
:10419000FEF7DEFC2449A0FB012304F148000AF0ED
:1041A00019FE012120460AF0ACFDA078400703D596
:1041B0000121204600F0C4FA7068C01C09F0CBFD54
:1041C000A873A078C00722D0CDF81080FF20CDF8CA
:1041D0001480E873E66906F10A0713E0049CB44210
:1041E00010D0727A607A3B4604F10A0109F038FD7A
:1041F00040B1A078E873D4F803002861B4F8070050
:10420000A88204E004A8FDF7EBFA0028E6D000201D
:104210009DE70000D810002050480000F400002066
:10422000D6BE898E5555550040420F0070B50446E4
:1042300080F873300888A4F87400FF2084F8910097
:104240004FF6FF7016460D46A4F89200002B43D19E
:10425000286909F0A8FDA4F88A00288BA4F88C002E
:10426000688BA4F88E0095F81B0284F89000207EDD
:10427000002188B194F8500001280DD194F85620FF
:10428000B0EB921F08D1D4F85100C4F87E00B4F806
:104290005500A4F8820003E0C4F87E10A4F8821050
:1042A0001548FF2E40680278C2F3801284F8772008
:1042B00018D050F8031FC4F884108088A4F8880030
:1042C00004F17802511E3046FEF728FC28B114F89C
:1042D000770F40F00200207070BD40F678412D202D
:1042E000FCF724FF50F8032FA2678088A4F87C0015
:1042F00044F8841FA18070BDF400002010B504466E
:10430000FFF7CEFE002808D104480078012803D02A
:1043100000212046FFF73EFD002010BDD8100020F0
:104320000A4810B50A490468087800280DD00878B2
:10433000022802D00878032802D12046FFF79AFE0F
:104340002046BDE8104000F03BB910BDF40000204D
:10435000D81000202DE9F041044629480D46406858
:1043600004F044F8274E0420307055B360881028BC
:1043700023D004F128008046B5680AF048FD0746BE
:1043800040460AF06DFD381A401EC0B261882822EE
:1043900000F09AFA0544A078C0F3C00030B170680C
:1043A00005440AF0B6FD2844C4F8D800227929460D
:1043B000002004F033F820B90CE02179002003F04C
:1043C000F3FD6088132811D007DC102815D01228BF
:1043D00007D10BE040F6955105E0152806D01D28C1
:1043E00004D040F6A9512D20FCF7A0FE2279BDE8AB
:1043F000F0410121002004F083B8BDE8F081000005
:10440000F4000020D810002038B5044690F8BA0017
:104410000B468DF80000009800909DF800000028E1
:104420003AD1207884F8BB00FF2B10D004F1BD02F4
:10443000511E1846FEF772FB30B194F8BC0040F0F4
:10444000020084F8BC0011E040F6FF7121E013483F
:1044500040680178C1F3801184F8BC10D0F80310D3
:10446000C4F8BD10B0F80700A4F8C10094F92E00FC
:104470007F280CD084F8C3007F2084F82E0004F13C
:10448000B200BDE838400222054909F0B9BF40F644
:1044900059612D20FCF74AFE38BD0000F4000020D1
:1044A000A7ED00002DE9FE4316460446032904D07B
:1044B00094F8680008B1012000E0002000250329DD
:1044C00003D00127052905D008E0A1780227C1F310
:1044D000400101E0A178C90700296BD0002869D10B
:1044E0003548DFF8D890807B80B109F037FC307018
:1044F000FF2814D0C0B26A4602A9FEF70FFB48B1EC
:1045000069469DF808000AF0C7FA05463078FF288A
:1045100005D00DE040F682712D20FCF707FED9F89A
:10452000041011F8030BC0F380100AF0B5FA054629
:10453000D9F8041094F8572004F1580311F8030B2C
:10454000C0F3801009F08CFBD9F80410804611F8F4
:10455000030BC0F3801009F00BFC8146FEF7FEFA56
:1045600038B14846FEF7BAFA18B14846FEF790FA55
:1045700038B100213078FF280CD0B8F1000F05D1F8
:1045800001E00121F6E7627E824201D1012003E0D1
:10459000002001E028EA0100A278520701D530B9D5
:1045A00008E039B91DB9E07B08B1B84202D1012059
:1045B000BDE8FE830020FBE7D8100020F4000020B7
:1045C00070B50446008E104D401C2086A87B002646
:1045D00020B103F077FC03F09BFAAE732E7094F8D1
:1045E000690008B101210AE0607B38B1218E884260
:1045F00004D8012120460AF0B0FC70BD00212046FD
:10460000BDE870400AF0A9BCD8100020F8B50446F7
:10461000FF208DF8000001266A4605212046FFF79D
:1046200041FF60B1294D284F6968FA7B07F11003FB
:1046300011F8030BC0F3801009F012FB10B1002633
:104640003046F8BD6A68E069127810F8A51FC2F319
:1046500040121140017001222046E16900F09EF8ED
:1046600000239DF800202046E169FFF7DFFD0222CC
:10467000174904F16A0009F0C3FEE06902220188CB
:10468000A4F8AE1090F8A50084F8B000114904F128
:10469000A40009F0B5FE0021E06939700E490B68ED
:1046A00013B10022214698476868E169D0F80320D9
:1046B00041F8032FB0F807208A800078E169C0F341
:1046C00080108870BCE70000D8100020F4000020A3
:1046D00057ED000047ED000004010020F8B5044646
:1046E000FF208DF8000001256A4603212046FFF7D0
:1046F000D9FEE8B1207B20B19DF800102046FFF7DD
:1047000083FE0D4E002170680180042109F0F6FC43
:10471000204600F08BF894F84420216C706809F072
:1047200024FD064905200870706803F05FFE00E074
:1047300000252846F8BD0000F4000020D810002015
:1047400070B504460E46407EFEF7C8F9050019D044
:10475000607EFEF79DF9002814D1012084F85E00E8
:1047600004F15F0132460C46284609F099FA2146C9
:10477000054C606809F0DDFC6068BDE8704001210F
:1047800009F0DDBC70BD0000F400002002480121EA
:104790000068FFF7FFBA0000F40000202DE9F041A7
:1047A000214E80460C467068154650F80F1F616117
:1047B000416821F07F41E161408909F0F0FA074644
:1047C000206170683946807D09F0E4FBA084706840
:1047D0003946B0F8170009F0D9FB2062706830F84C
:1047E0001B1F2183418861834168C4F8A610017AA8
:1047F00084F8AA10417A01F01F0184F8B110407AC0
:10480000400984F81B0204F1620005724572FF2121
:1048100081720021363809F068FE98F90E102046A2
:10482000BDE8F04109F063BBF400002070B5074D0E
:10483000044600F15101686809F088FC94F85010B2
:104840006868BDE8704009F087BC0000F4000020F3
:1048500021400000A93E00009D3F00000000000034
:10486000753F0000CD3F0000F7EC0000FDEC0000BC
:10487000FD420000214300008D4700006C4800000D
:10488000644800006048000010B5421E022A01D9A9
:10489000CA2109E0401E102909D012290CD0132981
:1048A0000AD0152905D0D8212F20FCF73FFC054957
:1048B00004E00449891D01E00249891F31F8100014
:1048C00010BD00002AEF0000421E10B5D2B2012A2E
:1048D00003D91D2901D0EE210DE0132913D004DCEA
:1048E00010290BD0122904D10DE0152908D01D295B
:1048F0000ED04FF481712F20FCF718FC074804E01C
:104900000648083001E00548001D30F8120010BDCF
:1049100040F25A3110FB01F010BD000018EF00000A
:104920002DE9F041044690F8E80016460F460028AD
:104930005ED121464F4806F00FFC0546202857D08F
:104940005022002104F1C8000CF0D0F984F8C850BE
:104950000125C4F8CC7084F8E85037B1FEF7FEFDAD
:1049600000F00700401C87F84C0220460AF0C0FC0B
:10497000A4F8F800022084F8FA00A84684F8FB5056
:10498000002504F8F05F07F057F807460BF0EDFF3D
:104990002189F03C884200D808463844CF3087B29D
:1049A00020460AF067F930B30BF068FE00F5CD60E1
:1049B00081B2304607F054F93044C4F8F400903422
:1049C0000BF0DCFFC0196941C4E91C0184F8408088
:1049D00024F86E5C01200AF098FA00F58B70301A0A
:1049E00060644FF0FF304108C4E91E01903C25E0AF
:1049F0000C20BDE8F081002120460AF0DAFBDFF848
:104A00007880C4F8F4000020B8F8041049B1618C33
:104A100039B1FEF7A3FDB8F80410B0FBF1F201FBC9
:104A2000120007440BF0AAFFC0196941C4E9400114
:104A3000BEB1801951EB0501C4E9420194F8C800E8
:104A400004F1F0010AF052FC78B1D4E94001C4E964
:104A50003801A4F8EA50002120460AF03BF9002072
:104A6000C7E74FF0FF304108E6E740F2EF11302092
:104A7000FCF75CFBD3F300000801002001498880AB
:104A80007047000008010020054800210170012244
:104A90008270417042F21071818000F003B8000012
:104AA000080100201CB50949D1E90001CDE9000148
:104AB00002E000980AF065FA6846FCF791FE0028CB
:104AC000F7D000F0C5F800201CBD0000E85300003E
:104AD00001490870704700000801002008494FF4A0
:104AE0007A72B1FBF2F110B501F52A7109F016FDE9
:104AF00040F64801884200D3084680B210BD00004D
:104B00007D52010010B503F085FB05498A6890428B
:104B100001D8487808B1002010BD012010BD000068
:104B20000801002010B50446062938D2DFE801F05C
:104B3000051103141532002106E0D4F8AC0210B1BF
:104B400020460AF066FB01212046BDE8104000F037
:104B500029B9032084F85C0210BD03F067FBC4F898
:104B6000AC0294F86B0003F025FCD4F8AC12884238
:104B700004D940F2E5313020FCF7D8FA94F86B0004
:104B800003F018FCD4F8AC12081A06498A681044DD
:104B9000886010BD2046BDE810400AF0C3BC40F25A
:104BA000AD71E8E7080100202DE9F0410C46804690
:104BB00012B140F2D77135E003F02CFB074600201C
:104BC00084F8D000D4E9405684F8E800012084F845
:104BD000E90054F8CC0F0121FEF738F82068C0F83E
:104BE0009052C0F89462216814F8040C81F8A40271
:104BF0002068C0F8A8722068C0E9A65654F8CC090D
:104C00000AF09CFC10B140F264710BE00AF0FAFA71
:104C100094F8C8004246064906F056F9002804D127
:104C20004FF4F8613020FCF781FABDE8F081000014
:104C30003FF4000010B50C2804D340F25B3106208D
:104C4000FCF774FA014931F8100010BD045400005B
:104C50002DE9FC41164D0120687000244FF6FF76C7
:104C60000BE00021FCF76AFD070009D097F8A402C9
:104C700006F05AF938460AF09FFB009401940EE0C2
:104C800040F225113020FCF751FA009838B190F825
:104C9000A412202903D00088B042E2D104E0684683
:104CA000FCF79EFD0028F0D06C70BDE8FC81000090
:104CB000080100202DE9F047044639481E46904679
:104CC000807889460025002863D006F089FFE0B38C
:104CD000B4F8480202285CD394F85C02022858D049
:104CE00094F8720288BB94F81B02FFF7A3FF00F54B
:104CF000C86081B2318094F85C02002701280DD091
:104D0000206906F0ADFFB4F836224244A2EB090157
:104D1000D4F86422821A01FB027535E094F8A100F0
:104D2000032839D00121002009F0CFF8216A471863
:104D30003188D4F8540206F093FFD4F85022D4F806
:104D40005812821A01FB025500E022E0C4F850021A
:104D50003188384606F084FFD4F86012C4F8600247
:104D6000411A0D443188206906F07AFFB4F83622E2
:104D70004244A2EB0901D4F85822891AD4F86422DB
:104D8000821A491E01FB0255C4F86402012084F80E
:104D900072022846BDE8F087D4F85402C6E7000046
:104DA0000801002038B500250446012902D1104829
:104DB000407870B1042084F85C0200BF0AF022FA47
:104DC000A4F8A252B4F89400A4F86E0284F87152C8
:104DD00038BD0095B4F8241201230022204600F0CB
:104DE00009F80028EAD040F221713020FCF79EF942
:104DF000080100202DE9FF4F8BB0044690F86B00AE
:104E000099460F46079305900BF038FC054694F839
:104E10001B02FFF70FFF2844ADF8040094F89E0032
:104E20000D2804D0002008900D9810B12EE001202C
:104E3000F9E794F85C02032828D1089830B3B4F855
:104E4000CC02B84222D1D4F86402C4F850022069DE
:104E5000C4F85402B4F8A202B4F836120844C4F8F4
:104E60005802204600F0DAFAD4F8D0022062B4F8F2
:104E7000CE02A084D4F8D4022061B4F8D8022083F2
:104E8000B4F8DA026083022084F85C02B4F894007B
:104E900004F51E75381A0FFA80FAB4F8A002381A11
:104EA0000FFA80F8B8F1000F08DAD4F89002D4F8BD
:104EB0009412D046C4E9A6010120079001AB5246E6
:104EC00041462046FFF7F6FE049094F85C02DFF8B6
:104ED00034B340B101287DD0022851D003287AD0C4
:104EE0004FF4B2618AE10121002008F0EEFF06468E
:104EF000206ABDF80410304406F0B2FEC4F8600227
:104F0000BDF80410206906F0ABFEC4F8640207A9DE
:104F100006A803F0E7F8D4E9A601DDE9062306F0C8
:104F2000C3FA824620460AF0FDFA94F86B00D4F8E2
:104F3000A88203F06DFA4AF2A13101444FF47A706D
:104F4000B1FBF0F0216AD4F860223144081A811ACA
:104F500041442039A1EB0A065000A18C6030014485
:104F600094F86B000AF0B0F92230CBF80C00D4F8BA
:104F7000A802301AB0F5E87F58D240F229513DE13D
:104F8000216AD4F854020844BDF8041006F068FE03
:104F9000C4F86002BDF80410206906F061FEC4F890
:104FA000640220460AF0BEFAB4F8360210BBB9F12A
:104FB000000F1FD094F86B80404603F029FA4AF2A4
:104FC000A13101444FF47A70B1FBF0F0D4F86012D3
:104FD000084401E02BE047E0226AD4F8541211445F
:104FE0000E1A404603F0E6F9D4F8AC12081A06444B
:104FF000203E06E0216AD4F854020844D4F8601236
:10500000461AD4F85822D4F85012D4F8600201FBA2
:1050100002004000A18C6030014494F86B000AF05B
:1050200053F9CBF80C00012084F85C0261E0D4F85D
:1050300064222069B4F83612861A01EB0A00D4F80B
:105040005812D4F850C2401AD4F86032401E0CFBFB
:10505000013100FB02104000A18C6030014406FBCE
:1050600008F694F86B0040E02069D4F8641200FB65
:1050700008F008FB110694F89D00252803D094F849
:105080009E00252809D1B4F8CC02381A00B20028B5
:1050900003DB94F8CF0200B105900798D8B1B4F8BB
:1050A0003602C0B9D4F8AC0200287DD094F86B0069
:1050B00003F0AEF94AF2A13101444FF47A70B1FB2A
:1050C000F0F0361A94F86B0003F074F9D4F8AC12CF
:1050D000081A0644203EB4F8361201EB0A00D4F850
:1050E000641248434100603105980AF0EDF8CBF8AE
:1050F0000C000498DBF80C20311AD4F864622069A3
:10510000801BA0F25A20CBF81000824200D8104633
:10511000C4F8300200262E706E202881D4E9A62023
:1051200051187041C5E9041004F12C0009F001FA8E
:10513000D4F8301208446860D5E90401C4E9A60136
:10514000A4F8A072AE72B4F82002C01B00B200280E
:1051500001DD0220A872089838B3B9F1000F1CD005
:10516000B4F84812F1B3B4F84A0200BFA4F84A02F6
:1051700094F84C22401C42438A420ED2A87A60B175
:10518000AE72B4F84A02401CA4F84A02FEF7E0F9F5
:1051900000F00700401C84F84C0294F8A402294651
:1051A0000AF0A4F840B301E009E00BE00D9880F0AC
:1051B000010084F8700200200FB0BDE8F08F40F2CB
:1051C0007B511BE0B9F1000FCAD194F85C020028B2
:1051D000E3D0D4F864122069411A284608F08BFE07
:1051E000000400E006E0000CD7D0189901B1088057
:1051F0000120E1E70020B9E740F2D9513020FBF768
:1052000095FF0000080100202DE9F041054690F8C7
:105210006B00282109F048FF00F52E780BF0A5FB64
:105220006E2800D86E20D5F86412A0F16E032A69AA
:105230000B449A4203D9511A0C1A6E3400E0002430
:105240001A4F387818B9E86AA04200D8044605F128
:105250002C0009F06EF9064695F86B000AF055F936
:10526000D5F8301230444618A41B002C00DC002472
:10527000022004F045FF844200D304460221204668
:1052800004F046FE00B9264442463146284609F05D
:10529000EFF8B86095F86B000AF037F9301ABDE8FE
:1052A000F041A0F26F1006F05BB80000080100208A
:1052B0007CB504460BF062FBD4F89032D4F894220B
:1052C000C01A61EB020100221346121A8B4102DB65
:1052D00040F256614DE0421C71F1000102DB40F2E8
:1052E000576146E0226900210AB1B0FBF2F194F85F
:1052F0009E000D28B4F86E021BD0B4F89420531809
:10530000C31A1BB2002B01DB401C01E0491C5018E2
:10531000A4F86E0294F871028DF8000000980090D5
:105320009DF8000040B9B4F86E02B4F82412884227
:1053300002D1401CA4F86E02B4F8A202401CA4F8EA
:10534000A202B4F8CE00B4F8CC10401AB4F894100D
:10535000401E084485B226E001A8002300901A46AA
:105360002046FFF747FD00283AD0012804D040F23C
:1053700096613020FBF7DAFEB4F86E02B4F8201222
:10538000421A12B2002A09DABDF804200244AA1A0D
:1053900012B2002A02DAA4F86E1204E0BDF804107A
:1053A0000844A4F86E02B4F86E12681A00B200281D
:1053B000D2DA94F8A10088B15FF0080084F8BD004B
:1053C0000222084904F1B40009F01AF820460AF054
:1053D0002BF92046BDE87C4009F0EEBF3E20EDE70A
:1053E0007CBD0000F7E600000000000000000100A6
:1053F000000000000000010000000000141E00007A
:1054000030110000F401FA00960064004B003200F5
:105410001E0014000A0005000200010010B5044639
:10542000D0F8D4022169884209D1B4F8D812228B6D
:10543000914204D1B4F8DA12628B914214D02188DF
:10544000A4F8CA1108F0AFFCA4F8CC01B4F8D80253
:10545000A4F8CE01B4F8DA02A4F8D0010222074978
:1054600004F5DF7008F0E0FF02212046FDF7EEFBB7
:10547000002004F89E0F0320E07010BD85E70000B7
:105480000648054901650649416507480549016522
:10549000064941657047000079670000340100202B
:1054A00061680000A7E70000E0010020B16C000087
:1054B0001E481D4981601E4941601E4901601E4908
:1054C00081621E49C1621E49C1601E4981611E4937
:1054D00001631E4901621E49C1641E4981641E495F
:1054E00041641E4941631E49C1611E4941621F4812
:1054F0001D4981601E49C1611E4941621E49C16248
:105500001E4901611E4941611E4941641E494163B2
:105510001E4981611E4901631E4981641E49C1649F
:105520001E49816370470000C56B000034010020F4
:1055300061650000CD6500006D680000A1F6000007
:105540008D6600009D6B00005D6C00002D67000003
:105550009FE9000057E90000156B0000496B00004F
:10556000D16B00003967000067E70000E001002010
:105570009D6D00006FF7000073F7000049F7000011
:10558000DBF70000F16C0000B9F70000296D0000A6
:10559000F9F700007BE90000C5E90000D7F700003B
:1055A0000648054981650649016607480549816540
:1055B0000649C16570470000BD6800003401002045
:1055C000A1690000B1060100E001002099F7000088
:1055D000F8B57C4C0121A4F1100621700025606013
:1055E00075807570357080F82B120088FCF750FAC2
:1055F00080B160680088FCF7B3FC60680088FCF745
:1056000057FC6068B0F82212C9B180300AF01BF86C
:1056100018B114E040F6B3416CE0606890F83011C6
:105620008DF80010009900919DF8001039B190F8A4
:105630009F2001231946803008F0BBFB80B16068D1
:1056400080300AF000F828B1606890F8260100BFA9
:1056500000F084FB606890F82D1289B1B5801EE0DF
:105660006068A0F8D05090F8311180F8281100211E
:10567000022000F039FE606880F82A520220E7E735
:1056800090F8C6118DF80010009900919DF8001057
:1056900019B9C18C028B914200D8018BB180B0F84E
:1056A0002612491E8FB2B0F828123944A0F82812E9
:1056B00030F8CC1F3944018001F0A0FB20B16068B4
:1056C00050F8C01F394401606168B1F82202012816
:1056D00002D8401CA1F822020FB181F8345281F89F
:1056E0002A52B1F8262201F1800008F08DFC20B189
:1056F00040F6FA413120FBF719FD606890F89E10E2
:105700000A2901D00B2919D1B0F89420B0F8CC3275
:10571000D21A12B2002A11DBD0F8CE12C0F8A610AD
:1057200090F8D21280F8AA100321FDF78FFA606872
:1057300080F89E50FF2180F8F41026E0252911D131
:10574000B0F89410B0F8CC22891A09B2002909DB0C
:1057500080F89E5000F082FE0028606880F83C517E
:1057600029D012E090F89D10252901D027290CD1CD
:10577000B0F89410B0F8CC22891A09B2002904DBE1
:1057800080F89D5000F06AFEA8B10F480090D6E95D
:1057900004010E4B0E4AFCF779FC606801230521D9
:1057A00090F89E20803008F004FB002809D0BDE866
:1057B000F840FCF765BCBDE8F8400021084600F061
:1057C0009FBBF8BD2C010020015F0000515A000072
:1057D000A96300001D4908B5496891F89E20C0B131
:1057E000112A06D0152A07D0162A09D01C2A28D13A
:1057F00009E001210B2008E0144809F05DFF06E0F4
:1058000000F090FD03E00121062000F06DFD012075
:1058100008BD222A04D02F2A13D101211120F4E738
:1058200091F83C0102280ED091F83C01012808D1E2
:1058300091F83D018DF80000009800909DF800005F
:1058400008B1002008BD01211720DEE72C0100204F
:1058500038B5002873D13B4C6068D0F88C10CA076B
:1058600002D00121092066E08A070AD501210C2017
:1058700000F03AFD606810F8DD1F41F00101017091
:105880005BE04A0702D50121132054E00A0706D540
:1058900090F8201180F82811012107204BE011F029
:1058A000300F44D090F833118DF80010009900911A
:1058B0009DF80010C1BB90F8321100258DF8001042
:1058C000009900919DF80010C1B190F89E10252913
:1058D0002BD090F89D10252927D0002300F2CE224E
:1058E00000F5997108F0B6FD606850F88C1F21F042
:1058F000200141F01001016080F8A650606890F826
:105900008C10C9061BD508F0C0FD0E4808F09BFF9F
:10591000616801F12C00C28BA1F82821408CA1F80C
:105920002A010121152006E009E00123D6E74806F7
:1059300005D50121242000F0D7FC012038BD00202E
:1059400038BD00002C01002070B50D46064608F059
:10595000B6FC0446304608F0B4FC294600F01EF8B8
:10596000B8B120460AF0C0FE01000DD00A484068D8
:1059700090F86B208A4207D090F83C11012905D09D
:1059800090F86700204204D0012070BD90F83F01DC
:10599000F8E7002070BD00002C01002070B50D4616
:1059A00004460AF0A1FE50B31649496891F86A20EE
:1059B000824224D091F83C31012B05D091F8663019
:1059C000234213D01DB11AE091F83E31F8E791F867
:1059D0006310214213D15AB1042A0ED004280CD0EE
:1059E000082A0AD0082808D0824208D9002070BDB1
:1059F0004FF4BC710620FBF799FB8242F6D30120DD
:105A000070BD00002C01002010B5104C01230021B6
:105A1000606890F89D20803008F0CBF940B1606854
:105A20000123042190F89E20803008F0C2F908B1CB
:105A3000002010BD606890F8CA000028F9D000214D
:105A4000122000F051FC012010BD00002C010020AC
:105A50000D4902464878A0B901F11000406842B1F2
:105A60008978090703D590F89F00072809D00120FD
:105A7000704700F12C018A8C818E8A4201D8FFF791
:105A800041B80020704700001C01002038B5324C9E
:105A900005466068803009F0D6FD00285BD1002DF6
:105AA00059D160680123194690F89F20803008F092
:105AB00080F900284FD1606890F830118DF80010FF
:105AC000009900919DF80020002142B1A0F8D0106B
:105AD00090F8311180F828110021022030E090F870
